{
  "contractName": "Fund",
  "abi": [
    {
      "constant": true,
      "inputs": [],
      "name": "checkBegin",
      "outputs": [
        {
          "name": "",
          "type": "uint256"
        }
      ],
      "payable": false,
      "stateMutability": "view",
      "type": "function",
      "signature": "0x01453a3a"
    },
    {
      "constant": true,
      "inputs": [
        {
          "name": "",
          "type": "uint256"
        }
      ],
      "name": "Users",
      "outputs": [
        {
          "name": "",
          "type": "address"
        }
      ],
      "payable": false,
      "stateMutability": "view",
      "type": "function",
      "signature": "0x1e98fd1c"
    },
    {
      "constant": true,
      "inputs": [],
      "name": "endtime",
      "outputs": [
        {
          "name": "",
          "type": "uint256"
        }
      ],
      "payable": false,
      "stateMutability": "view",
      "type": "function",
      "signature": "0x2ca126f8"
    },
    {
      "constant": true,
      "inputs": [],
      "name": "checkEnd",
      "outputs": [
        {
          "name": "",
          "type": "uint256"
        }
      ],
      "payable": false,
      "stateMutability": "view",
      "type": "function",
      "signature": "0x4b084d49"
    },
    {
      "constant": true,
      "inputs": [],
      "name": "userNum",
      "outputs": [
        {
          "name": "",
          "type": "uint256"
        }
      ],
      "payable": false,
      "stateMutability": "view",
      "type": "function",
      "signature": "0xbbfc5d6e"
    },
    {
      "constant": true,
      "inputs": [
        {
          "name": "",
          "type": "uint256"
        }
      ],
      "name": "rights",
      "outputs": [
        {
          "name": "",
          "type": "uint256"
        }
      ],
      "payable": false,
      "stateMutability": "view",
      "type": "function",
      "signature": "0xe9ef2113"
    },
    {
      "inputs": [],
      "payable": true,
      "stateMutability": "payable",
      "type": "constructor",
      "signature": "constructor"
    },
    {
      "anonymous": false,
      "inputs": [
        {
          "indexed": true,
          "name": "_candidateId",
          "type": "uint256"
        }
      ],
      "name": "fundEvent",
      "type": "event",
      "signature": "0xa1b41da744d5254c8fb586989854e35ff669fbcd0cbf3d6569d3433ca190c623"
    },
    {
      "constant": false,
      "inputs": [],
      "name": "init",
      "outputs": [],
      "payable": false,
      "stateMutability": "nonpayable",
      "type": "function",
      "signature": "0xe1c7392a"
    },
    {
      "constant": false,
      "inputs": [],
      "name": "changeFund",
      "outputs": [],
      "payable": true,
      "stateMutability": "payable",
      "type": "function",
      "signature": "0x9ae3d1f1"
    },
    {
      "constant": false,
      "inputs": [],
      "name": "checkFund",
      "outputs": [],
      "payable": false,
      "stateMutability": "nonpayable",
      "type": "function",
      "signature": "0x069b6df2"
    },
    {
      "constant": false,
      "inputs": [],
      "name": "checkBenefit",
      "outputs": [],
      "payable": false,
      "stateMutability": "nonpayable",
      "type": "function",
      "signature": "0x91b95499"
    }
  ],
  "bytecode": "0x6080604052670de0b6b3a764000060055562278d00600a556000600b5562015180600c55600b54600881905550600c54600981905550600a54420160078190555033600660006101000a81548173ffffffffffffffffffffffffffffffffffffffff021916908373ffffffffffffffffffffffffffffffffffffffff16021790555061009861009d640100000000026401000000009004565b6100b6565b600a600381905550600a60048190555060008081905550565b610904806100c56000396000f3fe6080604052600436106100a4576000357c0100000000000000000000000000000000000000000000000000000000900463ffffffff16806301453a3a146100a9578063069b6df2146100d45780631e98fd1c146100eb5780632ca126f8146101665780634b084d491461019157806391b95499146101bc5780639ae3d1f1146101d3578063bbfc5d6e146101dd578063e1c7392a14610208578063e9ef21131461021f575b600080fd5b3480156100b557600080fd5b506100be61026e565b6040518082815260200191505060405180910390f35b3480156100e057600080fd5b506100e9610274565b005b3480156100f757600080fd5b506101246004803603602081101561010e57600080fd5b81019080803590602001909291905050506103f9565b604051808273ffffffffffffffffffffffffffffffffffffffff1673ffffffffffffffffffffffffffffffffffffffff16815260200191505060405180910390f35b34801561017257600080fd5b5061017b61042c565b6040518082815260200191505060405180910390f35b34801561019d57600080fd5b506101a6610432565b6040518082815260200191505060405180910390f35b3480156101c857600080fd5b506101d1610438565b005b6101db6104eb565b005b3480156101e957600080fd5b506101f2610796565b6040518082815260200191505060405180910390f35b34801561021457600080fd5b5061021d61079c565b005b34801561022b57600080fd5b506102586004803603602081101561024257600080fd5b81019080803590602001909291905050506107b5565b6040518082815260200191505060405180910390f35b60085481565b600754804211151561028557600080fd5b600060035411151561029657600080fd5b600080600090505b600054811015610320573373ffffffffffffffffffffffffffffffffffffffff166001600083815260200190815260200160002060009054906101000a900473ffffffffffffffffffffffffffffffffffffffff1673ffffffffffffffffffffffffffffffffffffffff161415610313578091505b808060010191505061029e565b50600060026000838152602001908152602001600020541415156103f5576000678ac7230489e800006002600084815260200190815260200160002054029050600060026000848152602001908152602001600020819055506001600083815260200190815260200160002060009054906101000a900473ffffffffffffffffffffffffffffffffffffffff1673ffffffffffffffffffffffffffffffffffffffff166108fc829081150290604051600060405180830381858888f193505050501580156103f2573d6000803e3d6000fd5b50505b5050565b60016020528060005260406000206000915054906101000a900473ffffffffffffffffffffffffffffffffffffffff1681565b60075481565b60095481565b600854620151804281151561044957fe5b0611806104655750600954620151804281151561046257fe5b06105b151561047057600080fd5b6000600a600c6005540281151561048357fe5b0490506000600a60086005540281151561049957fe5b049050813073ffffffffffffffffffffffffffffffffffffffff16311015806104d95750803073ffffffffffffffffffffffffffffffffffffffff163111155b156104e7576104e66107cd565b5b5050565b60075480421015156104fc57600080fd5b600554341015151561050d57600080fd5b600060035411151561051e57600080fd5b60006005543481151561052d57fe5b04905060008054905060008090505b6000548110156105be573373ffffffffffffffffffffffffffffffffffffffff166001600083815260200190815260200160002060009054906101000a900473ffffffffffffffffffffffffffffffffffffffff1673ffffffffffffffffffffffffffffffffffffffff1614156105b1578091505b808060010191505061053c565b50336001600083815260200190815260200160002060006101000a81548173ffffffffffffffffffffffffffffffffffffffff021916908373ffffffffffffffffffffffffffffffffffffffff1602179055508160035410151561067e5760005481141561064357816002600083815260200190815260200160002081905550610665565b8160026000838152602001908152602001600020600082825401925050819055505b81600360008282540392505081905550600091506106db565b6000548114156106a75760035460026000838152602001908152602001600020819055506106cb565b60035460026000838152602001908152602001600020600082825401925050819055505b6003548203915060006003819055505b60008081548092919060010191905055506000600554348115156106fb57fe5b0614151561076457600060055483026005543481151561071757fe5b060190503373ffffffffffffffffffffffffffffffffffffffff166108fc829081150290604051600060405180830381858888f19350505050158015610761573d6000803e3d6000fd5b50505b807fa1b41da744d5254c8fb586989854e35ff669fbcd0cbf3d6569d3433ca190c62360405160405180910390a2505050565b60005481565b600a600381905550600a60048190555060008081905550565b60026020528060005260406000206000915090505481565b60006127103073ffffffffffffffffffffffffffffffffffffffff16318115156107f357fe5b0490506000809050600080600090505b6000548110156108d257600260008281526020019081526020016000205484029250600060026000838152602001908152602001600020819055506001600082815260200190815260200160002060009054906101000a900473ffffffffffffffffffffffffffffffffffffffff1691508173ffffffffffffffffffffffffffffffffffffffff166108fc670de0b6b3a764000085029081150290604051600060405180830381858888f193505050501580156108c4573d6000803e3d6000fd5b508080600101915050610803565b5050505056fea165627a7a72305820826a5e028c2a76ffee62711d17dea427721cfec975ee1fa004f1cd324315fb110029",
  "source": "pragma solidity >=0.4.21 <0.6.0;\r\n\r\ncontract Fund {\r\n    \r\n    //the table of the user\r\n    uint public userNum;\r\n    mapping(uint=>address payable) public Users;\r\n    \r\n    \r\n    //the table of the fund\r\n    mapping(uint=>uint) public rights;\r\n    uint rightSum;\r\n    uint rightSumAll;\r\n    uint proportion = 1 ether;\r\n    \r\n    //test\r\n    address payable owner;\r\n    \r\n    uint public endtime;\r\n    uint public checkBegin;//begin to check whether it is benefit or not\r\n    uint public checkEnd;//end checking whether it is benefit or not\r\n    modifier onlyBefore(uint _time) { require(now < _time); _; }\r\n    modifier onlyAfter(uint _time) { require(now > _time); _; }\r\n    modifier onlyCheck() {require((now%24 hours)>checkBegin || (now%24 hours)<checkEnd); _;}\r\n    /*test*/\r\n    uint _endtime = 30 days;\r\n    uint _begincheckTime = 0 hours;\r\n    uint _endcheckTime = 24 hours;\r\n    \r\n\r\n    //事件\r\n    event fundEvent(\r\n        uint indexed _candidateId\r\n    );\r\n\r\n    constructor() public payable{\r\n        \r\n        checkBegin = _begincheckTime;\r\n        checkEnd = _endcheckTime;\r\n        endtime = now + _endtime;\r\n        owner = msg.sender;\r\n        init();\r\n    }\r\n    \r\n    \r\n    //initial function\r\n    function init() public{\r\n        rightSum = 10;\r\n        rightSumAll = 10;\r\n        userNum = 0;\r\n    }\r\n    \r\n    //get the fund\r\n    function changeFund() onlyBefore(endtime) external payable{\r\n        \r\n        require(msg.value >= proportion);\r\n        require(rightSum > 0);\r\n        \r\n        uint right = msg.value/proportion;\r\n        \r\n        //check the user is new or not\r\n        uint UserID = userNum;\r\n        for(uint i = 0; i < userNum; i++) {\r\n            if(Users[i] == msg.sender) UserID = i;\r\n        }\r\n        \r\n        Users[UserID] = msg.sender;\r\n        \r\n        //the rightSum is left or not\r\n        if(rightSum >= right) {\r\n            if(UserID == userNum) rights[UserID] = right;\r\n            else rights[UserID] += right;\r\n            \r\n            rightSum -= right;\r\n            right = 0;\r\n        }\r\n        else{\r\n            if(UserID == userNum) rights[UserID] = rightSum;\r\n            else rights[UserID] += rightSum;\r\n            right -= rightSum;\r\n            rightSum = 0;\r\n        }\r\n        \r\n        userNum++;\r\n        \r\n        //return the left fund\r\n        if(msg.value % proportion != 0 ether) {\r\n            uint256 refundFee = msg.value % proportion + right*proportion;\r\n            msg.sender.transfer(refundFee);\r\n        }\r\n        \r\n        emit fundEvent(UserID);\r\n    }\r\n    \r\n    //check the fund is enough or not\r\n    function checkFund() onlyAfter(endtime) public {\r\n        require(rightSum > 0);\r\n        \r\n        uint userID;\r\n        for(uint i = 0;  i < userNum; i++) {\r\n            if(Users[i] == msg.sender) userID = i;\r\n        }\r\n        \r\n        if(rights[userID] != 0) {\r\n            uint refundFee = rights[userID]*10 ether;\r\n            rights[userID] = 0;\r\n            Users[userID].transfer(refundFee);\r\n        }\r\n    }\r\n    \r\n    //check it is benefit or not\r\n    //if get more than 20% of fund or get less 20% of the fund , then it is ended\r\n    function checkBenefit() onlyCheck() public {\r\n        \r\n        uint max = proportion*12/10;\r\n        uint min = proportion*8/10;\r\n        \r\n        if(address(this).balance >= max || address(this).balance <= min) {\r\n            refundFund();\r\n        }\r\n    }\r\n    \r\n    //return the money\r\n    function refundFund() private{\r\n        uint profit = address(this).balance/10000;\r\n        uint refundFee = 0 ether;\r\n        address payable temp;\r\n        \r\n        for(uint i=0; i<userNum; i++) {\r\n            refundFee = profit*rights[i];\r\n            rights[i] = 0;\r\n            temp = Users[i];\r\n            temp.transfer(refundFee*1 ether);\r\n        }    \r\n    }\r\n    \r\n    \r\n}",
  "sourcePath": "C:/Users/HP/Desktop/Final_block_demo/contracts/Fund.sol",
  "compiler": {
    "name": "solc",
    "version": "0.5.0+commit.1d4f565a.Emscripten.clang"
  },
  "schemaVersion": "3.0.0",
  "updatedAt": "2018-12-31T13:38:02.222Z",
  "devdoc": {
    "methods": {}
  },
  "userdoc": {
    "methods": {}
  }
}