{
  "contractName": "Election",
  "abi": [
    {
      "constant": true,
      "inputs": [
        {
          "name": "",
          "type": "uint256"
        }
      ],
      "name": "candidates",
      "outputs": [
        {
          "name": "id",
          "type": "uint256"
        },
        {
          "name": "name",
          "type": "string"
        },
        {
          "name": "voteCount",
          "type": "uint256"
        }
      ],
      "payable": false,
      "stateMutability": "view",
      "type": "function",
      "signature": "0x3477ee2e"
    },
    {
      "constant": true,
      "inputs": [
        {
          "name": "",
          "type": "address"
        }
      ],
      "name": "voters",
      "outputs": [
        {
          "name": "",
          "type": "uint256"
        }
      ],
      "payable": false,
      "stateMutability": "view",
      "type": "function",
      "signature": "0xa3ec138d"
    },
    {
      "constant": true,
      "inputs": [],
      "name": "candidateCount",
      "outputs": [
        {
          "name": "",
          "type": "uint256"
        }
      ],
      "payable": false,
      "stateMutability": "view",
      "type": "function",
      "signature": "0xa9a981a3"
    },
    {
      "inputs": [],
      "payable": false,
      "stateMutability": "nonpayable",
      "type": "constructor",
      "signature": "constructor"
    },
    {
      "anonymous": false,
      "inputs": [
        {
          "indexed": true,
          "name": "_candidateId",
          "type": "uint256"
        }
      ],
      "name": "votedEvent",
      "type": "event",
      "signature": "0xfff3c900d938d21d0990d786e819f29b8d05c1ef587b462b939609625b684b16"
    },
    {
      "constant": false,
      "inputs": [
        {
          "name": "_candidateId",
          "type": "uint256"
        }
      ],
      "name": "vote",
      "outputs": [],
      "payable": true,
      "stateMutability": "payable",
      "type": "function",
      "signature": "0x0121b93f"
    }
  ],
  "bytecode": "0x608060405234801561001057600080fd5b5060006002819055506100666040805190810160405280600981526020017fe5ad9fe7be8ee5b2900000000000000000000000000000000000000000000000815250610105640100000000026401000000009004565b6100b36040805190810160405280600981526020017fe590b4e5aea3e4bbaa0000000000000000000000000000000000000000000000815250610105640100000000026401000000009004565b6101006040805190810160405280600981526020017fe69da8e8b685e8b68a0000000000000000000000000000000000000000000000815250610105640100000000026401000000009004565b610226565b600260008154809291906001019190505550606060405190810160405280600254815260200182815260200160008152506000806002548152602001908152602001600020600082015181600001556020820151816001019080519060200190610170929190610181565b506040820151816002015590505050565b828054600181600116156101000203166002900490600052602060002090601f016020900481019282601f106101c257805160ff19168380011785556101f0565b828001600101855582156101f0579182015b828111156101ef5782518255916020019190600101906101d4565b5b5090506101fd9190610201565b5090565b61022391905b8082111561021f576000816000905550600101610207565b5090565b90565b6103b4806102356000396000f3fe608060405260043610610062576000357c0100000000000000000000000000000000000000000000000000000000900463ffffffff1680630121b93f146100675780633477ee2e14610095578063a3ec138d14610157578063a9a981a3146101bc575b600080fd5b6100936004803603602081101561007d57600080fd5b81019080803590602001909291905050506101e7565b005b3480156100a157600080fd5b506100ce600480360360208110156100b857600080fd5b81019080803590602001909291905050506102a8565b6040518084815260200180602001838152602001828103825284818151815260200191508051906020019080838360005b8381101561011a5780820151818401526020810190506100ff565b50505050905090810190601f1680156101475780820380516001836020036101000a031916815260200191505b5094505050505060405180910390f35b34801561016357600080fd5b506101a66004803603602081101561017a57600080fd5b81019080803573ffffffffffffffffffffffffffffffffffffffff16906020019092919050505061036a565b6040518082815260200191505060405180910390f35b3480156101c857600080fd5b506101d1610382565b6040518082815260200191505060405180910390f35b6000811180156101f957506002548111155b151561020457600080fd5b600160003373ffffffffffffffffffffffffffffffffffffffff1673ffffffffffffffffffffffffffffffffffffffff1681526020019081526020016000206000815480929190600101919050555060008082815260200190815260200160002060020160008154809291906001019190505550807ffff3c900d938d21d0990d786e819f29b8d05c1ef587b462b939609625b684b1660405160405180910390a250565b6000602052806000526040600020600091509050806000015490806001018054600181600116156101000203166002900480601f01602080910402602001604051908101604052809291908181526020018280546001816001161561010002031660029004801561035a5780601f1061032f5761010080835404028352916020019161035a565b820191906000526020600020905b81548152906001019060200180831161033d57829003601f168201915b5050505050908060020154905083565b60016020528060005260406000206000915090505481565b6002548156fea165627a7a72305820b9da9e79e77950b2d565c98c6a5cfcf3b92994b209bcfafaa5285db84d1594880029",
  "source": "pragma solidity >=0.4.21 <0.6.0;\r\n\r\ncontract Election {\r\n\r\n    //结构体\r\n    struct Candidate {\r\n        uint id;\r\n        string name;\r\n        uint voteCount;\r\n    }\r\n\r\n    //事件\r\n    event votedEvent(\r\n        uint indexed _candidateId\r\n    );\r\n\r\n    //存储结构体\r\n    mapping (uint => Candidate) public candidates;\r\n    //是否已经投票了\r\n    mapping (address=>uint) public voters;\r\n\r\n    //总数量\r\n    uint public candidateCount;\r\n\r\n    //构造函数\r\n    constructor() public {\r\n        candidateCount = 0;\r\n        addCandidate(\"孟美岐\");\r\n        addCandidate(\"吴宣仪\");\r\n        addCandidate(\"杨超越\");\r\n    }\r\n\r\n    //添加候选人\r\n    function addCandidate(string memory _name) private {\r\n        candidateCount ++;\r\n        candidates[candidateCount] = Candidate(candidateCount, _name, 0);\r\n    }\r\n\r\n    //投票\r\n    function vote(uint _candidateId) public payable{\r\n\r\n        //过滤\r\n        require(_candidateId > 0 && _candidateId <= candidateCount);\r\n\r\n        //记录用户已经投票了\r\n        voters[msg.sender]++;\r\n        candidates[_candidateId].voteCount ++;\r\n\r\n        emit votedEvent(_candidateId);\r\n    }\r\n\r\n}",
  "sourcePath": "C:/Users/HP/Desktop/Block_demo/contracts/Election.sol",
  "compiler": {
    "name": "solc",
    "version": "0.5.0+commit.1d4f565a.Emscripten.clang"
  },
  "schemaVersion": "3.0.0",
  "updatedAt": "2018-12-31T14:42:16.921Z",
  "devdoc": {
    "methods": {}
  },
  "userdoc": {
    "methods": {}
  }
}